{
  "contractName": "PlayWithInLineAssembly",
  "abi": [
    {
      "constant": true,
      "inputs": [
        {
          "name": "_a",
          "type": "uint256"
        },
        {
          "name": "_b",
          "type": "uint256"
        }
      ],
      "name": "add",
      "outputs": [
        {
          "name": "result",
          "type": "uint256"
        }
      ],
      "payable": false,
      "stateMutability": "pure",
      "type": "function"
    }
  ],
  "bytecode": "0x608060405234801561001057600080fd5b5060de8061001f6000396000f300608060405260043610603f576000357c0100000000000000000000000000000000000000000000000000000000900463ffffffff168063771602f7146044575b600080fd5b348015604f57600080fd5b5060766004803603810190808035906020019092919080359060200190929190505050608c565b6040518082815260200191505060405180910390f35b6000604051602081016020600483376020806004018237805182510192505050929150505600a165627a7a723058209db7ba43a7a3bb117e87ef411ff98f21baeadc39a6ce7c4f66f737aa8cf66db40029",
  "source": "pragma solidity ^0.4.25;\n\ncontract PlayWithInLineAssembly {\n    function add(uint256 _a, uint256 _b) public pure\n      returns (uint256 result)\n        {\n            assembly {\n              // Solidity always stores a free memory pointer at position 0x40\n              // load into stack from memory @0x40\n              let aPtr := mload(0x40)\n              // increment bPtr by adding 32 bytes offset to 0x40\n              let bPtr := add(aPtr, 32)\n              // copy call data (_a) into memory: after first 4 bytes (function selector)\n              calldatacopy(aPtr, 4, 32)\n              // copy call data (_b) into memory: after first (4bytes + 32 bytes)\n              calldatacopy(bPtr, add(4, 32), 32)\n              // load data (aPtr, bPtr) from memory into stack\n              result := add(mload(aPtr), mload(bPtr)) // sum two data values and assign the output to result\n        }\n    }\n}",
  "sourcePath": "/Users/ahmed/Desktop/code/workshops/contract-upgradability-tiec-workshop/labs/data_locations/contracts/PlayWithDataLocations.sol",
  "compiler": {
    "name": "solc",
    "version": "0.4.25+commit.59dbf8f1.Linux.g++"
  },
  "schemaVersion": "3.0.2",
  "updatedAt": "2019-04-12T21:39:07.014Z",
  "devdoc": {
    "methods": {}
  },
  "userdoc": {
    "methods": {}
  }
}