{
  "contractName": "ProxyContract",
  "abi": [
    {
      "constant": true,
      "inputs": [],
      "name": "a",
      "outputs": [
        {
          "name": "",
          "type": "uint256"
        }
      ],
      "payable": false,
      "stateMutability": "view",
      "type": "function"
    },
    {
      "constant": true,
      "inputs": [],
      "name": "contractPtr",
      "outputs": [
        {
          "name": "",
          "type": "address"
        }
      ],
      "payable": false,
      "stateMutability": "view",
      "type": "function"
    },
    {
      "inputs": [],
      "payable": false,
      "stateMutability": "nonpayable",
      "type": "constructor"
    },
    {
      "constant": false,
      "inputs": [
        {
          "name": "val",
          "type": "uint256"
        }
      ],
      "name": "set",
      "outputs": [
        {
          "name": "",
          "type": "bool"
        }
      ],
      "payable": false,
      "stateMutability": "nonpayable",
      "type": "function"
    }
  ],
  "bytecode": "0x608060405234801561001057600080fd5b5061001961007b565b604051809103906000f080158015610035573d6000803e3d6000fd5b50600160006101000a81548173ffffffffffffffffffffffffffffffffffffffff021916908373ffffffffffffffffffffffffffffffffffffffff16021790555061008b565b60405161011b8061037183390190565b6102d78061009a6000396000f300608060405260043610610057576000357c0100000000000000000000000000000000000000000000000000000000900463ffffffff1680630dbe671f1461005c578063211b99411461008757806360fe47b1146100de575b600080fd5b34801561006857600080fd5b50610071610123565b6040518082815260200191505060405180910390f35b34801561009357600080fd5b5061009c610129565b604051808273ffffffffffffffffffffffffffffffffffffffff1673ffffffffffffffffffffffffffffffffffffffff16815260200191505060405180910390f35b3480156100ea57600080fd5b506101096004803603810190808035906020019092919050505061014f565b604051808215151515815260200191505060405180910390f35b60005481565b600160009054906101000a900473ffffffffffffffffffffffffffffffffffffffff1681565b600080600160009054906101000a900473ffffffffffffffffffffffffffffffffffffffff1673ffffffffffffffffffffffffffffffffffffffff1660405180807f7365742875696e74323536290000000000000000000000000000000000000000815250600c01905060405180910390207c01000000000000000000000000000000000000000000000000000000009004846040518263ffffffff167c010000000000000000000000000000000000000000000000000000000002815260040180828152602001915050600060405180830381865af49250505090508015156102a1576040517f08c379a00000000000000000000000000000000000000000000000000000000081526004018080602001828103825260148152602001807f696e76616c69642064656c656761746563616c6c00000000000000000000000081525060200191505060405180910390fd5b60019150509190505600a165627a7a72305820bbd656284fff82fc8edfffbd4337ec25503fedcdcb09e2b7fe9f84f5805391830029608060405234801561001057600080fd5b5060fc8061001f6000396000f3006080604052600436106049576000357c0100000000000000000000000000000000000000000000000000000000900463ffffffff1680630dbe671f14604e57806360fe47b1146076575b600080fd5b348015605957600080fd5b50606060b8565b6040518082815260200191505060405180910390f35b348015608157600080fd5b50609e6004803603810190808035906020019092919050505060be565b604051808215151515815260200191505060405180910390f35b60005481565b600081600081905550600190509190505600a165627a7a723058202c4d426f723939fb7d83cec7a17df46864f22961629dfc0f10067194ff67c4310029",
  "source": "pragma solidity 0.4.25;\n\ncontract SampleLogicContract {\n    uint public a;\n\n    function set(uint val)\n        public\n        returns (bool)\n    {\n        a = val;\n        return true;\n    }\n}\n\ncontract ProxyContract {\n    uint public a;\n    address public contractPtr;\n\n    constructor()\n        public\n    {\n        contractPtr = address(new SampleLogicContract());\n    }\n\n    function set(uint val)\n        public\n        returns (bool)\n    {\n        bool state = contractPtr.delegatecall(bytes4(keccak256(\"set(uint256)\")), val);\n        require(\n            state,\n            'invalid delegatecall'\n        );\n        return true;\n    }\n}",
  "sourcePath": "/Users/ahmed/Desktop/code/workshops/contract-upgradability-tiec-workshop/labs/safe_delegatecall_proxy/contracts/SafeDelegateCallProxy.sol",
  "compiler": {
    "name": "solc",
    "version": "0.4.25+commit.59dbf8f1.Linux.g++"
  },
  "schemaVersion": "3.0.2",
  "updatedAt": "2019-04-13T08:21:35.657Z",
  "devdoc": {
    "methods": {}
  },
  "userdoc": {
    "methods": {}
  }
}