{
  "contractName": "SampleLogicContract",
  "abi": [
    {
      "constant": true,
      "inputs": [],
      "name": "a",
      "outputs": [
        {
          "name": "",
          "type": "uint256"
        }
      ],
      "payable": false,
      "stateMutability": "view",
      "type": "function"
    },
    {
      "constant": false,
      "inputs": [
        {
          "name": "val",
          "type": "uint256"
        }
      ],
      "name": "set",
      "outputs": [
        {
          "name": "",
          "type": "bool"
        }
      ],
      "payable": false,
      "stateMutability": "nonpayable",
      "type": "function"
    }
  ],
  "bytecode": "0x608060405234801561001057600080fd5b5060fc8061001f6000396000f3006080604052600436106049576000357c0100000000000000000000000000000000000000000000000000000000900463ffffffff1680630dbe671f14604e57806360fe47b1146076575b600080fd5b348015605957600080fd5b50606060b8565b6040518082815260200191505060405180910390f35b348015608157600080fd5b50609e6004803603810190808035906020019092919050505060be565b604051808215151515815260200191505060405180910390f35b60005481565b600081600081905550600190509190505600a165627a7a723058202c4d426f723939fb7d83cec7a17df46864f22961629dfc0f10067194ff67c4310029",
  "source": "pragma solidity 0.4.25;\n\ncontract SampleLogicContract {\n    uint public a;\n\n    function set(uint val)\n        public\n        returns (bool)\n    {\n        a = val;\n        return true;\n    }\n}\n\ncontract ProxyContract {\n    uint public a;\n    address public contractPtr;\n\n    constructor()\n        public\n    {\n        contractPtr = address(new SampleLogicContract());\n    }\n\n    function set(uint val)\n        public\n        returns (bool)\n    {\n        bool state = contractPtr.delegatecall(bytes4(keccak256(\"set(uint256)\")), val);\n        require(\n            state,\n            'invalid delegatecall'\n        );\n        return true;\n    }\n}",
  "sourcePath": "/Users/ahmed/Desktop/code/workshops/contract-upgradability-tiec-workshop/labs/safe_delegatecall_proxy/contracts/SafeDelegateCallProxy.sol",
  "compiler": {
    "name": "solc",
    "version": "0.4.25+commit.59dbf8f1.Linux.g++"
  },
  "schemaVersion": "3.0.2",
  "updatedAt": "2019-04-13T08:21:35.657Z",
  "devdoc": {
    "methods": {}
  },
  "userdoc": {
    "methods": {}
  }
}