{
  "contractName": "SampleLib",
  "abi": [
    {
      "constant": false,
      "inputs": [
        {
          "name": "_self",
          "type": "SampleLib.SampleStruct storage"
        },
        {
          "name": "_sender",
          "type": "address"
        },
        {
          "name": "_state",
          "type": "bool"
        }
      ],
      "name": "create",
      "outputs": [],
      "payable": false,
      "stateMutability": "nonpayable",
      "type": "function"
    },
    {
      "constant": true,
      "inputs": [
        {
          "name": "_self",
          "type": "SampleLib.SampleStruct storage"
        }
      ],
      "name": "getSender",
      "outputs": [
        {
          "name": "",
          "type": "address"
        }
      ],
      "payable": false,
      "stateMutability": "view",
      "type": "function"
    }
  ],
  "bytecode": "0x6101fb610030600b82828239805160001a6073146000811461002057610022565bfe5b5030600052607381538281f3fe7300000000000000000000000000000000000000003014608060405260043610610063576000357c0100000000000000000000000000000000000000000000000000000000900463ffffffff1680637c00897c1461006857806391b5800c146100d6575b600080fd5b6100946004803603602081101561007e57600080fd5b810190808035906020019092919050505061013d565b604051808273ffffffffffffffffffffffffffffffffffffffff1673ffffffffffffffffffffffffffffffffffffffff16815260200191505060405180910390f35b8180156100e257600080fd5b5061013b600480360360608110156100f957600080fd5b8101908080359060200190929190803573ffffffffffffffffffffffffffffffffffffffff16906020019092919080351515906020019092919050505061016b565b005b60008160000160019054906101000a900473ffffffffffffffffffffffffffffffffffffffff169050919050565b808360000160006101000a81548160ff021916908315150217905550818360000160016101000a81548173ffffffffffffffffffffffffffffffffffffffff021916908373ffffffffffffffffffffffffffffffffffffffff16021790555050505056fea165627a7a7230582035c8b4d8ec32274def7a94faede9f854ff90423b249d76854773bad31ab484370029",
  "source": "pragma solidity 0.5.0;\n\nlibrary SampleLib {\n\n    struct SampleStruct{\n        bool state;\n        address sender;\n    }\n\n    function create(\n        SampleStruct storage _self,\n        address _sender,\n        bool _state\n    )\n        public\n    {\n        _self.state = _state;\n        _self.sender = _sender;\n    }\n\n    function getSender(\n        SampleStruct storage _self\n    )\n        public\n        view\n        returns(address)\n    {\n        return _self.sender;\n    }\n}",
  "sourcePath": "/Users/ahmed/Desktop/code/workshops/contract-upgradability-tiec-workshop/labs/playWithZeppelinOS/contracts/SampleLib.sol",
  "compiler": {
    "name": "solc",
    "version": "0.5.0+commit.1d4f565a.Emscripten.clang"
  },
  "schemaVersion": "3.0.2",
  "updatedAt": "2019-04-14T12:19:04.875Z",
  "devdoc": {
    "methods": {}
  },
  "userdoc": {
    "methods": {}
  }
}